S00B00007470342E7372656301
S11300000C9434000C9451000C9451000C94510045
S11300100C9451000C9451000C9451000C94510018
S11300200C9451000C9451000C9451000C94510008
S11300300C9451000C9451000C941E010C9451002A
S11300400C94F9000C9451000C94CC010C945100C4
S11300500C9451000C9451000C9451000C945100D8
S11300600C9451000C94510011241FBECFEFD8E022
S1130070DEBFCDBF11E0A0E0B1E0E2E1F5E002C0F7
S113008005900D92AC3CB107D9F721E0ACECB1E09E
S113009001C01D92AE3CB207E1F70E9443010C94EB
S11300A087020C94000087B1877F87B9EEE7F0E000
S11300B0808188608083ECE7F0E080E48083808145
S11300C08360808380818062808387E080937A006C
S11300D00895EAE7F0E08081806880830895EAE784
S11300E0F0E080818064808380917A0084FFFCCF7B
S11300F0EAE7F0E08081806180838091790008954F
S113010095B121E030E002C0220F331F8A95E2F757
S1130110292B25B9089595B121E030E002C0220FC2
S1130120331F8A95E2F72095292325B908950E9463
S11301308B0008950E948000089584B1866284B97A
S113014085E00E949A0082E00E949A0081E00E9469
S11301509A000895CF93C82F811106C00E943302DC
S113016085E00E949A000FC08F3F31F40E943F0245
S113017085E00E94970007C00E942D020E94390268
S11301808C2F0E944502CF910895CF93C82F8111DF
S113019006C00E941B0282E00E949A0005C00E94D1
S11301A00F028C2F0E942702CF910895CF93C82F5E
S11301B0811106C00E94150281E00E949A0005C0C8
S11301C00E9409028C2F0E942102CF910895CF939F
S11301D0DF93D62FC42F61E00E94AA0061E08D2F27
S11301E00E94C50061E08C2F0E94D600DF91CF9160
S11301F008951F920F920FB60F9211242F933F93DD
S11302004F935F936F937F938F939F93AF93BF931A
S1130210EF93FF9385E00E949700FF91EF91BF91C8
S1130220AF919F918F917F916F915F914F913F918A
S11302302F910F900FBE0F901F9018951F920F9241
S11302400FB60F9211242F933F934F935F936F93A5
S11302507F938F939F93AF93BF93EF93FF9385E027
S11302600E949A00FF91EF91BF91AF919F918F915E
S11302707F916F915F914F913F912F910F900FBE9E
S11302800F901F901895CF93DF931F92CDB7DEB7D1
S113029019820E94E8010E94DE010E9400020E946D
S11302A09D000E9453000E94690087E60E94470255
S11302B00E9451020E9457028AE491E00E946B025C
S11302C081E091E00E946B020E945D02789480912B
S11302D000018111FCCF8091CC01898381E080935E
S11302E000018981873401F1823519F0823479F76C
S11302F037C084E791E00E946B0211C00E946F0036
S11303008093CD0140E060E00E94E7002FEF81EE92
S113031094E0215080409040E1F700C000008091BB
S113032000018111EBCFD3CF81E991E00E946B02F0
S113033012C00E946F008093CD0140E0682F80E0DE
S11303400E94E7002FEF81EE94E02150804090401E
S1130350E1F700C00000809100018111EACFB7CF1E
S11303608FEA91E00E946B0212C00E946F0080939A
S1130370CD01482F60E080E00E94E7002FEF81EE7E
S113038094E0215080409040E1F700C0000080914B
S113039000018111EACF9BCF1F920F920FB60F92EB
S11303A011248F938091C6008093CC011092000198
S11303B08F910F900FBE0F901F901895EEE6F0E00E
S11303C08081887F808314BC15BC17BC16BC08953B
S11303D0EFE6F0E08081887F808388E0809381006D
S11303E081E080938000109289001092880010921E
S11303F08B0010928A001092850010928400089558
S113040085B5856085BDE1E8F0E080818560808305
S11304100895E0E8F0E08081806C80830895E0E84E
S1130420F0E08081806380830895E0E8F0E08081DB
S11304308F7380830895E0E8F0E080818F7C80836F
S1130440089590E09093890080938800089590E047
S113045090938B0080938A000895EEE6F0E080810B
S1130460816080830895EEE6F0E080818E7F808352
S11304700895EEE6F0E08081826080830895EEE6E0
S1130480F0E080818D7F8083089587BD0895109268
S1130490C10096E09093C2001092C5008093C400FE
S11304A00895E1ECF0E08081886080830895E1ECB8
S11304B0F0E08081806180830895E1ECF0E0808148
S11304C08068808308958091C00085FFFCCF0895E3
S11304D08093C6000895EF92FF920F931F93CF93DA
S11304E07C01C0E007C00E946302F80180810E9481
S11304F06802CF5F87010C0F111DF8018081811103
S1130500F2CFCF911F910F91FF90EF900895F8943F
S1050510FFCF17
S113051201456E76ED6520275227207061726120B5
S11305226D6F6469666963617220656C20726F6ABB
S11305326F2C20274727207061726120656C20761A
S1130542657264652C2027422720706172612065E0
S11305526C20617A756C2E0D0A004269656E7665AF
S11305626E69646F20616C20636F6E74726F6C616C
S1130572646F722052474220706F72205541525468
S11305822E0D0A004D6F6469666963616E646F20A3
S1130592656C20636F6C6F7220526F6A6F2E0D0A46
S11305A2004D6F6469666963616E646F20656C20D7
S11305B2636F6C6F722056657264652E0D0A004D6E
S11305C26F6469666963616E646F20656C20636F32
S10F05D26C6F7220417A756C2E0D0A00CB
S9030000FC
